:03000000022BB61A
:0C2BB600787FE4F6D8FD758121022BFD2C
:102A78000A002020547261696E696E672050617483
:102A88007465726E3A20256420002020496E7075A6
:102A9800742000256400200020205461726765744A
:102AA800200020204F757470757420002566007210
:102AB8006573756C743A2000496E697469616C2F8E
:102AC800556E747261696E6564204F7574707574A3
:102AD800733A200A00547261696E696E67437963BC
:102AE8006C653A2025640020204572726F72203D83
:102AF8002025660A00547261696E696E6720536505
:102B08007420536F6C7665642120002D2D2D2D2D9A
:042B18002D2D2D0032
:102811004402323E99999A4402583F6666664402E0
:10282100743F00000044025C3DCCCCCD60460028E2
:10283100010101010101000001010000000001018D
:10284100000101000101010101000001000101007D
:10285100000101010001010001010000010101016C
:10286100010101010000000001010101010101015B
:102871000101000001016028027C0000000000004D
:102881000001000001000000010100010000000141
:10289100000100010100000101010100000001002F
:1028A100000142026000016100007EC00F94BC3F44
:1028B100CAE7E6BFCCC437C0710AB3408537CC4004
:1028C1003D52B9BF9B92EAC09563BB3FDBB3103F5A
:1028D100AA142F3F886E54BF83CFB3BED18C3BBFA8
:1028E100AA93643EFC2A88C081CC3C3DCFCD683F91
:1028F10028D280BF7C7432BE39BD84BF750AFE3FC9
:102901004EF901BF87C32F3F6FE5323F7C06E2C01E
:10291100076CDF3F6E7E413F95D780BF8C92E63DCD
:1029210013BC0A404733B13EB6685EBF1B5793C024
:1029310040EB573FA0CAF73FA23F2DBEE312B2C002
:1029410059912E3F1A8662BFC0ABE73F87FFF8401F
:102951004E1DE23E346C334043D4D8C087833EC021
:102961002B559BC04B8423401DC2B5C0743283BF1D
:1029710021A826BF374CE4BF23544CBFD00C95BFD0
:10298100D044FABF12F5994000E7683E1191DE3D4F
:10299100E39B453E611516BE4E08F2BE8925573FA1
:1029A1004B35A03EBF78573E70531A602001823CE0
:1029B10023F898BB5759EF3B7301EB3BAEC0723A1A
:1029C1004069E83A811B1E3C0F68BE38CF9E3860D3
:1029D1009002AEC09094E0BC7B224BBFF0AD923F21
:1029E10024C87A3FC9DFDB3EE56085C0AC9E434029
:1029F1002A0C13BF6CD7CFBF558E223F366A44C015
:102A01001E4507BF824767400852AC3DB67B1CC0DC
:102A1100850E7CC0242CC74078BD3840B1CA433FE5
:102A2100FC4335C050BBA5401BDA664017C10140CD
:102A3100D22296C031D103C059C02B402456D6BFF3
:102A4100C016DFC095BFBC40BC56C73FCC4A7BBB5C
:102A51004EA290401C2E4DC065AA713E0DE54BBFA4
:102A6100B154C1500000BC4BA733BA9E12A5B95254
:062A7100C387BB3A0E848E
:102D21005398EF8F99E59830E1FB5398FD43981044
:012D3100227F
:062D4000AE07122D212256
:0E2D320090044512193B1220087E007F0122FA
:102D0600900442EEF0A3EFF0122CB9900442E0FCDE
:0B2D1600A3E0FD1218C1AE04AF0522BF
:031A31001219CEB9
:101A3400E49002A8F0A3F07BFF7A2A7978C00290A0
:101A4400026BA3E0FAA3E0F5828A83D0021219CED6
:101A54009002A8E0FCA3E0FD7BFF7A2A797AC00219
:101A640090026EA3E0FAA3E0F5828A83D0021219F1
:101A7400CE7BFF7A2A7992C00290026EA3E0FAA389
:101A8400E0F5828A83D0021219CEE4900278F0A3A2
:101A9400F0900278E0FEA3E0FFC39407EE64809424
:101AA4008050699002A8E0FCA3E090002875F0073C
:101AB400121978EC75F007A42583F583E5822FF5D8
:101AC40082E5833EF583E0FD7C007BFF7A2A799BE7
:101AD400C00290026EA3E0FAA3E0F5828A83D002EA
:101AE4001219CE7BFF7A2A799EC00290026EA3E07F
:101AF400FAA3E0F5828A83D0021219CE900279E02B
:101B040004F0708D900278E004F080857BFF7A2ADF
:101B14007978C00290026EA3E0FAA3E0F5828A838A
:101B2400D0021219CE7BFF7A2A79A0C00290026EED
:101B3400A3E0FAA3E0F5828A83D0021219CEE490DE
:101B44000278F0A3F0900278E0FCA3E0FDC39404D3
:101B5400EC6480948050699002A8E0FEA3E07802CF
:101B6400C333CE33CED8F9247CF58274023EF58398
:101B7400E5822DF582E5833CF583E0FD7C007BFF67
:101B84007A2A799BC00290026EA3E0FAA3E0F58260
:101B94008A83D0021219CE7BFF7A2A799EC00290E2
:101BA400026EA3E0FAA3E0F5828A83D0021219CE72
:101BB400900279E004F0708D900278E004F0808562
:101BC4007BFF7A2A7978C00290026EA3E0FAA3E040
:101BD400F5828A83D0021219CEE4900278F0A3F041
:101BE400900278E0FEA3E0FFC39408EE6480948042
:101BF4004003021D5AEF7802C333CE33CED8F92402
:101C04005EF58274013EF583E0FCA3E0FDA3E0FEF3
:101C1400A3E0FF9002A412193BE490027AF0A3F02F
:101C24009002A4E0F8A3E0F9A3E0FAA3E0FBC0006B
:101C3400C001C002C00390027AE0FEA3E0FF90025C
:101C4400A8E0FCA3E090002875F007121978EC7561
:101C5400F007A42583F583E5822FF582E5833EF51D
:101C640083E0FCE41215B5C004C005C006C00790AB
:101C74000278E0FEA3E07802C333CE33CED8F9FD78
:101C8400AC0690027AE0FEA3E07805C333CE33CEEF
:101C9400D8F9247EF58274003EF583E5822DF58221
:101CA400E5833CF583E0F8A3E0F9A3E0FAA3E0FBC5
:101CB400D007D006D005D00412137BD003D002D0B5
:101CC40001D00012128A9002A412193B90027BE008
:101CD40004F0700690027AE004F090027AE0700456
:101CE400A3E064076003021C249002A4E0FCA3E0C8
:101CF400FDA3E0FEA3E0FF12159A122B54E4FBFAB5
:101D04007980783F12128AA804A905AA06AB07E4D1
:101D1400FFFE7D807C3F121484C004C005C006C051
:101D240007900278E0FEA3E07802C333CE33CED826
:101D3400F92436F58274023EF583D007D006D00527
:101D4400D00412193B900279E004F07006900278F6
:101D5400E004F0021BE4E4900278F0A3F09002782F
:101D6400E0FEA3E0FFC39404EE6480948040030289
:101D74001ECFEF7802C333CE33CED8F9242EF582AA
:101D840074033EF583E0FCA3E0FDA3E0FEA3E0FFC3
:101D94009002A412193BE490027AF0A3F09002A4FA
:101DA400E0F8A3E0F9A3E0FAA3E0FBC000C001C09F
:101DB40002C003900278E0FEA3E07802C333CE337E
:101DC400CED8F9FDAC0690027BE0C4F8540FC86885
:101DD400FF90027AE0C454F048FE74AE2FF582748A
:101DE400023EF583E5822DF582E5833CF583E0FC34
:101DF400A3E0FDA3E0FEA3E0FFC004C005C006C04D
:101E04000790027AE0FEA3E07802C333CE33CED843
:101E1400F92436F58274023EF583E0F8A3E0F9A3D1
:101E2400E0FAA3E0FBD007D006D005D00412137B60
:101E3400D003D002D001D00012128A9002A4121949
:101E44003B90027BE004F0700690027AE004F0908C
:101E5400027AE07004A3E064086003021DA190020A
:101E6400A4E0FCA3E0FDA3E0FEA3E0FF12159A1298
:101E74002B54E4FBFA7980783F12128AA804A9054E
:101E8400AA06AB07E4FFFE7D807C3F121484C004E5
:101E9400C005C006C007900278E0FEA3E07802C344
:101EA40033CE33CED8F9246EF58274003EF583D058
:101EB40007D006D005D00412193B900279E004F053
:101EC4007006900278E004F0021D617BFF7A2A79A3
:101ED400AAC00290026EA3E0FAA3E0F5828A83D03E
:101EE400021219CEE4900278F0A3F0900278E0FE9A
:101EF400A3E0FFC39404EE648094805060EF780202
:101F0400C333CE33CED8F9246EF58274003EF58304
:101F1400E0FCA3E0FDA3E0FEA3E0FF7BFF7A2A79C7
:101F2400B4C002900271A3E0FAA3E0F5828A83D0E0
:101F3400021219CE7BFF7A2A799EC00290026EA308
:101F4400E0FAA3E0F5828A83D0021219CE900279D6
:101F5400E004F07096900278E004F0808E7BFF7AC3
:101F64002A7978C00290026EA3E0FAA3E0F5828A8F
:101F740083D0021219CE9002A9E004F070069002F8
:101F8400A8E004F0C39002A9E0940A9002A8E064D7
:091F94008094805003021A3B22E4
:10242000900442EBF0A3EAF0A3E9F0E4900278F024
:10243000A3F0900278E0FEA3E0FFC39408EE64806E
:1024400094804003022595EF7802C333CE33CED873
:10245000F9245EF58274013EF583E0FCA3E0FDA360
:10246000E0FEA3E0FF9002A412193BE490027AF090
:10247000A3F09002A4E0F8A3E0F9A3E0FAA3E0FB44
:10248000C000C001C002C003900442E0FBA3E0FA18
:10249000A3E0F990027AE0FEA3E0F5828E831218A1
:1024A00082FCE41215B5C004C005C006C007900246
:1024B00078E0FEA3E07802C333CE33CED8F9FDAC8A
:1024C0000690027AE0FEA3E07805C333CE33CED87F
:1024D000F9247EF58274003EF583E5822DF582E5D0
:1024E000833CF583E0F8A3E0F9A3E0FAA3E0FBD096
:1024F00007D006D005D00412137BD003D002D00140
:10250000D00012128A9002A412193B90027BE004C0
:10251000F0700690027AE004F090027AE07004A372
:10252000E0640760030224729002A4E0FCA3E0FDD3
:10253000A3E0FEA3E0FF12159A122B54E4FBFA79F4
:1025400080783F12128AA804A905AA06AB07E4FF07
:10255000FE7D807C3F121484C004C005C006C00705
:10256000900278E0FEA3E07802C333CE33CED8F9F0
:102570002436F58274023EF583D007D006D005D00C
:102580000412193B900279E004F07006900278E0A2
:1025900004F0022432E4900278F0A3F0900278E094
:1025A000FEA3E0FFC39404EE6480948040030227FE
:1025B00066EF7802C333CE33CED8F9242EF5827479
:1025C000033EF583E0FCA3E0FDA3E0FEA3E0FF9063
:1025D00002A412193BE490027AF0A3F09002A4E066
:1025E000F8A3E0F9A3E0FAA3E0FBC000C001C00239
:1025F000C003900278E0FEA3E07802C333CE33CE6E
:10260000D8F9FDAC0690027BE0C4F8540FC868FF0F
:1026100090027AE0C454F048FE74AE2FF582740242
:102620003EF583E5822DF582E5833CF583E0FCA34E
:10263000E0FDA3E0FEA3E0FFC004C005C006C007A4
:1026400090027AE0FEA3E07802C333CE33CED8F90D
:102650002436F58274023EF583E0F8A3E0F9A3E0A6
:10266000FAA3E0FBD007D006D005D00412137BD02C
:1026700003D002D001D00012128A9002A412193B9A
:1026800090027BE004F0700690027AE004F0900281
:102690007AE07004A3E0640860030225DC9002A4E1
:1026A000E0FCA3E0FDA3E0FEA3E0FF12159A122BCD
:1026B00054E4FBFA7980783F12128AA804A905AA8B
:1026C00006AB07E4FFFE7D807C3F121484C004C08B
:1026D00005C006C007900278E0FEA3E07802C3338D
:1026E000CE33CED8F9FBAA06246EF58274003AF5F3
:1026F00083D007D006D005D00412193B746E2BF599
:102700008274003AF583E0FCA3E0FDA3E0FEA3E0C1
:10271000FF7BCD7ACC794C783F121521E4FFFE5037
:10272000067D807C3F8002FDFCC004C005C006C061
:1027300007900278E0FEA3E07802C333CE33CED810
:10274000F9246EF58274003EF583D007D006D005DB
:10275000D00412193B900279E004F07006900278E0
:10276000E004F002259C7BFF7A2A79B7C002900230
:102770006EA3E0FAA3E0F5828A83D0021219CEE4B8
:10278000900278F0A3F0900278E0FEA3E0FFC394FB
:1027900004EE648094805060EF7802C333CE33CE71
:1027A000D8F9246EF58274003EF583E0FCA3E0FDC9
:1027B000A3E0FEA3E0FF7BFF7A2A79B4C002900277
:1027C00071A3E0FAA3E0F5828A83D0021219CE7BCE
:1027D000FF7A2A799EC00290026EA3E0FAA3E0F588
:1027E000828A83D0021219CE900279E004F07096AA
:1027F000900278E004F0808E7BFF7A2A7978C0021C
:1028000090026EA3E0FAA3E0F5828A83D002021957
:01281000CEF9
:102C4200900268E4F0A37425F0A37480F0A374FFEB
:102C5200F0A3742DF0A37432F0F9A374FFF0A374FF
:102C62002DF0A3E9F0A374FFF0A3742DF0A3E9F013
:102C7200900256E4F0A304F0E49002A8F0A3F090CE
:102C820002A8E0FCA3E0FD25E0FFEC33FE74142F64
:102C9200F58274003EF583ECF0A3EDF09002A9E01A
:102CA20004F070069002A8E004F09002A8E070041C
:072CB200A3E0640A70C922CF
:10000300122C42E4900278F0A3F0E490027AF0A379
:10001300F090027AE0FCA3E0FDD39407EC648094B3
:1000230080400302010C900278E0FEA3E07802C353
:1000330033CE33CED8F9FBAA06EDAE047805C3332D
:10004300CE33CED8F92442F58274033EF583E5829C
:100053002BF582E5833AF583121947000000007FF0
:10006300647E00122D06AC06AD07EC1215B0E4FB5E
:10007300FA79C8784212148490033E12193BE4FFC4
:10008300FEFD7CBF90033EE0F8A3E0F9A3E0FAA3F2
:10009300E0FB12128AE4FBFAF9784012137B900218
:1000A30074E0F8A3E0F9A3E0FAA3E0FB12137BC02A
:1000B30004C005C006C007900278E0FEA3E0780202
:1000C300C333CE33CED8F9FDAC0690027AE0FEA35B
:1000D300E07805C333CE33CED8F9247EF58274009D
:1000E3003EF583E5822DF582E5833CF583D007D089
:1000F30006D005D00412193B90027BE004F0700691
:1001030090027AE004F0020014900279E004F070A7
:1001130006900278E004F0C3900279E0940890021C
:1001230078E064809480500302000DE4900278F03C
:10013300A3F0E490027AF0A3F090027AE0FCA3E04B
:10014300FDD39408EC64809480400302023C900247
:1001530078E0FEA3E07802C333CE33CED8F9FBAA0E
:1001630006EDC4F8540FC868FFECC454F048FE749D
:10017300A22FF58274013EF583E5822BF582E58398
:100183003AF583121947000000007F647E00122DA8
:1001930006AC06AD07EC1215B0E4FBFA79C8784259
:1001A30012148490033E12193BE4FFFEFD7CBF90C2
:1001B300033EE0F8A3E0F9A3E0FAA3E0FB12128AFE
:1001C300E4FBFAF9784012137B900274E0F8A3E0A1
:1001D300F9A3E0FAA3E0FB12137BC004C005C00639
:1001E300C007900278E0FEA3E07802C333CE33CE9B
:1001F300D8F9FDAC0690027BE0C4F8540FC868FF41
:1002030090027AE0C454F048FE74AE2FF582740273
:100213003EF583E5822DF582E5833CF583D007D057
:1002230006D005D00412193B90027BE004F070065F
:1002330090027AE004F002013C900279E004F0704D
:1002430006900278E004F0C3900279E094049002EF
:1002530078E06480948050030201357BFF7A2A7929
:10026300C0C00290026BA3E0FAA3E0F5828A83D0B8
:1002730002121A3190017E1219470000000174FF27
:10028300FFFEFD7C7F90017EE0F8A3E0F9A3E0FA96
:10029300A3E0FBC3121905400302115CE49002A81A
:1002A300F0A3F07F0A7E00122D069002AAEEF0A3BF
:1002B300EFF09002A9E025E0FD9002A8E033FC7482
:1002C300142DF58274003CF583E0FFA3E09002ACAB
:1002D300CFF0A3EFF09002ABE025E0FF9002AAE09D
:1002E30033FE74142FF58274003EF583E0FAA3E025
:1002F300FB74142DF58274003CF583EAF0A3EBF054
:100303009002ACE0FCA3E0FD74142FF58274003E70
:10031300F583ECF0A3EDF09002A9E004F0700690F1
:1003230002A8E004F0C39002A9E0940A9002A8E0B6
:100333006480948050030202A690001012194700B3
:10034300000000E49002AAF0A3F09002AAE0FEA34A
:10035300E0FFC3940AEE648094804003021050EFE0
:1003630025E0FFEE33FE74142FF58274003EF5830F
:10037300E0FFA3E09002A8CFF0A3EFF0E4900278AF
:10038300F0A3F0900278E0FEA3E0FFC39408EE64CC
:1003930080948040030204FCEF7802C333CE33CE53
:1003A300D8F9245EF58274013EF583E0FCA3E0FDF9
:1003B300A3E0FEA3E0FF9002A412193BE490027AAB
:1003C300F0A3F09002A4E0F8A3E0F9A3E0FAA3E01D
:1003D300FBC000C001C002C00390027AE0FEA3E0AC
:1003E300FF9002A8E0FCA3E090002875F007121923
:1003F30078EC75F007A42583F583E5822FF582E574
:10040300833EF583E0FCE41215B5C004C005C006C5
:10041300C007900278E0FEA3E07802C333CE33CE68
:10042300D8F9FDAC0690027AE0FEA3E07805C33369
:10043300CE33CED8F9247EF58274003EF583E5826F
:100443002DF582E5833CF583E0F8A3E0F9A3E0FA18
:10045300A3E0FBD007D006D005D00412137BD00352
:10046300D002D001D00012128A9002A412193B903C
:10047300027BE004F0700690027AE004F090027AC6
:10048300E07004A3E0640760030203C69002A4E0E3
:10049300FCA3E0FDA3E0FEA3E0FF12159A122B5488
:1004A300E4FBFA7980783F12128AA804A905AA0608
:1004B300AB07E4FFFE7D807C3F121484C004C005BB
:1004C300C006C007900278E0FEA3E07802C333CEF3
:1004D30033CED8F92436F58274023EF583D007D0A3
:1004E30006D005D00412193B900279E004F070069F
:1004F300900278E004F0020386E4900278F0A3F01F
:10050300900278E0FEA3E0FFC39404EE648094803D
:1005130040030208A2EF7802C333CE33CED8F924C6
:100523002EF58274033EF583E0FCA3E0FDA3E0FE19
:10053300A3E0FF9002A412193BE490027AF0A3F027
:100543009002A4E0F8A3E0F9A3E0FAA3E0FBC00063
:10055300C001C002C003900278E0FEA3E07802C3AA
:1005630033CE33CED8F9FDAC0690027BE0C4F85409
:100573000FC868FF90027AE0C454F048FE74AE2FAF
:10058300F58274023EF583E5822DF582E5833CF521
:1005930083E0FCA3E0FDA3E0FEA3E0FFC004C005ED
:1005A300C006C00790027AE0FEA3E07802C333CE10
:1005B30033CED8F92436F58274023EF583E0F8A3EE
:1005C300E0F9A3E0FAA3E0FBD007D006D005D004FE
:1005D30012137BD003D002D001D00012128A9002F2
:1005E300A412193B90027BE004F0700690027AE0BB
:1005F30004F090027AE07004A3E06408600302054B
:10060300439002A4E0FCA3E0FDA3E0FEA3E0FF12FD
:10061300159A122B54E4FBFA7980783F12128AA8B8
:1006230004A905AA06AB07E4FFFE7D807C3F1214F4
:1006330084C004C005C006C007900278E0FEA3E0B2
:100643007802C333CE33CED8F9246EF58274003EDC
:10065300F583D007D006D005D00412193B9002A829
:10066300E0FEA3E07802C333CE33CED8F9247CF581
:100673008274023EF583C083C082900278E0FEA3B9
:10068300E0D082D0832582F582E5833EF583E0FCCA
:10069300E41215B5C004C005C006C007900278E097
:1006A300FEA3E07802C333CE33CED8F9246EF582AD
:1006B30074003EF583E0F8A3E0F9A3E0FAA3E0FBBE
:1006C300D007D006D005D004121286C004C005C0DE
:1006D30006C007900278E0FEA3E07802C333CE336E
:1006E300CED8F9246EF58274003EF583E0F8A3E0DA
:1006F300F9A3E0FAA3E0FBD007D006D005D004129B
:10070300137BC004C005C006C007900278E0FEA3B7
:10071300E07802C333CE33CED8F9246EF582740069
:100723003EF583E0F8A3E0F9A3E0FAA3E0FBE4FFDE
:10073300FE7D807C3F121286D003D002D001D00010
:1007430012137BC004C005C006C007900278E0FE08
:10075300A3E07802C333CE33CED8F92400F58274F4
:10076300003EF583D007D006D005D00412193B9084
:100773000010E0F8A3E0F9A3E0FAA3E0FBC000C097
:1007830001C002C0039002A8E0FEA3E07802C333D5
:10079300CE33CED8F9247CF58274023EF583C08330
:1007A300C082900278E0FEA3E0D082D0832582F558
:1007B30082E5833EF583E0FCE41215B5C004C00571
:1007C300C006C007900278E0FEA3E07802C333CEF0
:1007D30033CED8F9246EF58274003EF583E0F8A396
:1007E300E0F9A3E0FAA3E0FBD007D006D005D004DC
:1007F300121286E4FBFAF9783F12137BC004C0059A
:10080300C006C0079002A8E0FEA3E07802C333CE7F
:1008130033CED8F9247CF58274023EF583C083C0BD
:1008230082900278E0FEA3E0D082D0832582F58215
:10083300E5833EF583E0FCE41215B5C004C005C0B2
:1008430006C007900278E0FEA3E07802C333CE33FC
:10085300CED8F9246EF58274003EF583E0F8A3E068
:10086300F9A3E0FAA3E0FBD007D006D005D0041229
:100873001286D003D002D001D00012137BD003D054
:1008830002D001D00012128A90001012193B90027C
:1008930079E004F07006900278E004F0020503E4C6
:1008A300900278F0A3F09002A41219470000000010
:1008B300E490027AF0A3F09002A4E0F8A3E0F9A395
:1008C300E0FAA3E0FBC000C001C002C00390027ABB
:1008D300E0FEA3E07802C333CE33CED8F9FDAC06F5
:1008E300900279E0C4F8540FC868FF900278E0C41E
:1008F30054F048FE74AE2FF58274023EF583E58210
:100903002DF582E5833CF583E0FCA3E0FDA3E0FE47
:10091300A3E0FFC004C005C006C00790027AE0FE52
:10092300A3E07802C333CE33CED8F92400F5827422
:10093300003EF583E0F8A3E0F9A3E0FAA3E0FBD0DF
:1009430007D006D005D00412137BD003D002D00108
:10095300D00012128A9002A412193B90027BE00489
:10096300F0700690027AE004F090027AE07004A33B
:10097300E0640460030208BA900278E0FEA3E07822
:1009830002C333CE33CED8F92436F58274023EF552
:1009930083E0F8A3E0F9A3E0FAA3E0FBE4FFFE7D24
:1009A300807C3F121286C004C005C006C0079002B7
:1009B30078E0FEA3E07802C333CE33CED8F92436F1
:1009C300F58274023EF583E0FCA3E0FDA3E0FEA301
:1009D300E0FF9002A4E0F8A3E0F9A3E0FAA3E0FBB0
:1009E30012137BD003D002D001D00012137BC004BA
:1009F300C005C006C007900278E0FEA3E07802C3FA
:100A030033CE33CED8F92482F58274013EF583D0F8
:100A130007D006D005D00412193B900279E004F008
:100A23007006900278E004F0900278E07004A3E08E
:100A3300640860030208A9E4900278F0A3F090022E
:100A430078E0FEA3E07802C333CE33CED8F9242274
:100A5300F58274043EF583E0FCA3E0FDA3E0FEA36E
:100A6300E0FF900258E0F8A3E0F9A3E0FAA3E0FB6B
:100A730012137BC004C005C006C007900278E0FED5
:100A8300A3E07802C333CE33CED8F92482F582743F
:100A9300013EF583E0FCA3E0FDA3E0FEA3E0FF90AD
:100AA3000232E0F8A3E0F9A3E0FAA3E0FB12137B20
:100AB300D003D002D001D00012128AC004C005C0F6
:100AC30006C007900278E0FEA3E07802C333CE337A
:100AD300CED8F9FBAA062422F58274043AF583D012
:100AE30007D006D005D00412193B745E2BF582742F
:100AF300013AF583C083C082E0FCA3E0FDA3E0FEDE
:100B0300A3E0FFC004C005C006C007900278E0FE62
:100B1300A3E07802C333CE33CED8F92422F582740E
:100B2300043EF583E0F8A3E0F9A3E0FAA3E0FBD0E9
:100B330007D006D005D00412128AD082D0831219AE
:100B43003BE490027AF0A3F090027AE0FEA3E0FF88
:100B53009002A8E0FCA3E090002875F00712197832
:100B6300EC75F007A42583F583E5822FF582E583F1
:100B73003EF583E0FCE41215B5900232E0F8A3E001
:100B8300F9A3E0FAA3E0FB12137BC004C005C0067F
:100B9300C007900278E0FEA3E07802C333CE33CEE1
:100BA300D8F92482F58274013EF583E0F8A3E0F9D5
:100BB300A3E0FAA3E0FBD007D006D005D0041213BC
:100BC3007BC004C005C006C007900278E0FEA3E026
:100BD3007802C333CE33CED8F9FDAC0690027AE067
:100BE300FEA3E07805C333CE33CED8F92442F58291
:100BF30074033EF583E5822DF582E5833CF583E0BE
:100C0300FCA3E0FDA3E0FEA3E0FF900258E0F8A3FD
:100C1300E0F9A3E0FAA3E0FB12137BD003D002D0E8
:100C230001D00012128AC004C005C006C00790029A
:100C330078E0FEA3E07802C333CE33CED8F9FBAA23
:100C43000690027AE0FEA3E07805C333CE33CED814
:100C5300F92442F58274033EF583E5822BF582E5A0
:100C6300833AF583D007D006D005D00412193B9000
:100C7300027AE0FEA3E07805C333CE33CED8F9245D
:100C83007EF58274003EF583E5822BF582E5833A97
:100C9300F583C083C082E0FCA3E0FDA3E0FEA3E0F4
:100CA300FFC004C005C006C007900278E0FEA3E0C1
:100CB3007802C333CE33CED8F9FDAC0690027AE086
:100CC300FEA3E07805C333CE33CED8F92442F582B0
:100CD30074033EF583E5822DF582E5833CF583E0DD
:100CE300F8A3E0F9A3E0FAA3E0FBD007D006D00510
:100CF300D00412128AD082D08312193B90027BE077
:100D030004F0700690027AE004F090027AE0700436
:100D1300A3E064076003020B4B900279E004F070D8
:100D230006900278E004F0900278E07004A3E06497
:100D3300086003020A41E4900278F0A3F09002787D
:100D4300E0FEA3E07802C333CE33CED8F92422F5F4
:100D53008274023EF583E0FCA3E0FDA3E0FEA3E082
:100D6300FF900258E0F8A3E0F9A3E0FAA3E0FB1236
:100D7300137BC004C005C006C007900278E0FEA341
:100D8300E07802C333CE33CED8F92400F582740061
:100D93003EF583E0FCA3E0FDA3E0FEA3E0FF9002A9
:100DA30032E0F8A3E0F9A3E0FAA3E0FB12137BD04F
:100DB30003D002D001D00012128AC004C005C006BD
:100DC300C007900278E0FEA3E07802C333CE33CEAF
:100DD300D8F9FBAA062422F58274023AF583D007D8
:100DE300D006D005D00412193B742E2BF582740360
:100DF3003AF583C083C082E0FCA3E0FDA3E0FEA339
:100E0300E0FFC004C005C006C007900278E0FEA35F
:100E1300E07802C333CE33CED8F92422F5827402AC
:100E23003EF583E0F8A3E0F9A3E0FAA3E0FBD007E3
:100E3300D006D005D00412128AD082D08312193B77
:100E4300E490027AF0A3F090027AE0FEA3E0780245
:100E5300C333CE33CED8F92436F58274023EF583FC
:100E6300E0FCA3E0FDA3E0FEA3E0FF900232E0F884
:100E7300A3E0F9A3E0FAA3E0FB12137BC004C005CF
:100E8300C006C007900278E0FEA3E07802C333CE29
:100E930033CED8F92400F58274003EF583E0F8A33D
:100EA300E0F9A3E0FAA3E0FBD007D006D005D00415
:100EB30012137BC004C005C006C007900278E0FE91
:100EC300A3E07802C333CE33CED8F9FDAC0690024B
:100ED3007BE0C4F8540FC868FF90027AE0C454F072
:100EE30048FE74A22FF58274013EF583E5822DF549
:100EF30082E5833CF583E0FCA3E0FDA3E0FEA3E0F1
:100F0300FF900258E0F8A3E0F9A3E0FAA3E0FB1294
:100F1300137BD003D002D001D00012128AC004C0C8
:100F230005C006C007900278E0FEA3E07802C33351
:100F3300CE33CED8F9FBAA0690027BE0C4F8540F57
:100F4300C868FF90027AE0C454F048FE74A22FF5FB
:100F53008274013EF583E5822BF582E5833AF583BE
:100F6300D007D006D005D00412193B90027BE0C411
:100F7300F8540FC868FF90027AE0C454F048FE7436
:100F8300AE2FF58274023EF583E5822BF582E5836D
:100F93003AF583C083C082E0FCA3E0FDA3E0FEA397
:100FA300E0FFC004C005C006C007900278E0FEA3BE
:100FB300E07802C333CE33CED8F9FDAC0690027B82
:100FC300E0C4F8540FC868FF90027AE0C454F048B4
:100FD300FE74A22FF58274013EF583E5822DF5821E
:100FE300E5833CF583E0F8A3E0F9A3E0FAA3E0FB93
:100FF300D007D006D005D00412128AD082D0831233
:10100300193B90027BE004F0700690027AE004F052
:1010130090027AE07004A3E064086003020E4A9031
:101023000279E004F07006900278E004F090027810
:10103300E07004A3E064046003020D409002ABE09F
:1010430004F070069002AAE004F002034D900257E8
:10105300E024FFF0900256E034FFF0E07002A3E0DA
:1010630060030211137BFF7A2A7978C00290026B26
:10107300A3E0FAA3E0F5828A83D0021219CE7BFFA4
:101083007A2A7978C00290026BA3E0FAA3E0F58292
:101093008A83D0021219CE90017EA3A3E0FEA3E0BF
:1010A300FDAC067BFF7A2A79DDC00290026EA3E0D5
:1010B300FAA3E0F5828A83D0021219CE900010E0E1
:1010C300FCA3E0FDA3E0FEA3E0FF7BFF7A2A79EF18
:1010D300C002900271A3E0FAA3E0F5828A83D002F2
:1010E300121A31E47F01FEFDFC90017EE0F8A3E0DB
:1010F300F9A3E0FAA3E0FBC31219059002567009A5
:101103007403F0A374E7F080077403F0A374E8F0AA
:1011130090025CE0FCA3E0FDA3E0FEA3E0FF9000EF
:1011230010E0F8A3E0F9A3E0FAA3E0FB12152140D5
:101133002890017EE0FCA3E0FDA3E0FEA3E0FFE432
:10114300FAF9F8EF2401FFEA3EFEE93DFDE83CFC35
:1011530090017E12193B0202817BFF7A2A7978C0C3
:101163000290026BA3E0FAA3E0F5828A83D0021215
:1011730019CE7BFF7A2A7978C00290026BA3E0FA3A
:10118300A3E0F5828A83D0021219CE90017EA3A335
:10119300E0FEA3E0FDAC067BFF7A2A79DDC0029076
:1011A300026EA3E0FAA3E0F5828A83D0021219CE7D
:1011B300900010E0FCA3E0FDA3E0FEA3E0FF7BFFB3
:1011C3007A2A79EFC002900271A3E0FAA3E0F582D4
:1011D3008A83D0021219CE121A347BFF7A2A7978C5
:1011E300C00290026BA3E0FAA3E0F5828A83D002E7
:1011F3001219CE7BFF7A2A7978C00290026BA3E0A2
:10120300FAA3E0F5828A83D0021219CE7BFF7A2AF1
:1012130079FDC00290026BA3E0FAA3E0F5828A8312
:10122300D0021219CE7BFF7A2B7913C00290026B86
:10123300A3E0FAA3E0F5828A83D0021219CE7BFFE2
:101243007A2A7978C00290026BA3E0FAA3E0F582D0
:101253008A83D0021219CE7BFF7A2A7978C0029052
:10126300026BA3E0FAA3E0F5828A83D0021219CEBF
:10127300900256E4F0A304F0FB7A007944022420A0
:1012830002161EE86480F8E933E83360110460F065
:10129300ED33EC337009E8FCE9FDEAFEEBFF2204D1
:1012A30060DED3EB9FEA9EE99DE8C2E78CF0C2F7CC
:1012B30095F0400CE8CCF8E9CDF9EACEFAEBCFFB98
:1012C3001215E985D0F05804700320D5B3E80470F3
:1012D300075002B2D502162892D5EC0460F7E4CC8D
:1012E300C0E0C398F8603B94186008400DD0E0FB61
:1012F300021600E4FBFAC9FC8028E830E406E4C9DE
:10130300FBE4CAFCE830E305E4C9CACBFCE85407B4
:101313006010F8C3E913F9EA13FAEB13FBEC13FCBF
:10132300D8F130F52FC3E49CFCEF9BFFEE9AFEED62
:1013330099FDD0E0FBEF4E4D4C701222DB030216F9
:1013430025EC2CFCEF33FFEE33FEED33FDED30E700
:10135300EB021600EF2BFFEE3AFEED39FDD0E0FB7A
:1013630050130BBB0003021628ED13FDEE13FEEF23
:0813730013FFEC13FC0216004D
:10137B00EC4D6011E8497017ED33EC3304600DE46C
:10138B00FCFFFEFD22E933E8330470F802161E124F
:10139B0015E958046009E4CC248150062850090251
:1013AB001628284003021625C0E0EB4A7044B9808A
:1013BB0006D0E0FB021614EF4E701CBD8008EBFF4D
:1013CB00EAFEE9FD80EBE98DF0A4FEE5F002146482
:1013DB00E9CDF9EAFEEBFFEF89F0A4FCE5F0CE894D
:1013EB00F0A42EFFE435F0CD89F0A42DFEE435F00A
:1013FB008067EF4E7005BD80D780C3EF8BF0A4AC38
:10140B00F0EE8BF0A42CFCE435F0F8EF8AF0A42C72
:10141B00E5F038FCE433CB8DF0A42CFCE5F03BF885
:10142B00EE8AF0A42CFCE5F038F8E433CF89F0A475
:10143B002CFCE5F038CF3400CE89F0A42FFFE5F07B
:10144B003EFEE433C98DF0A42EFEE5F039CD8AF0D3
:10145B00A42FFFE5F03EFEE43DFD33D0E0FB50074B
:10146B000BBB000F021628EC2CFCEF33FFEE33FE08
:06147B00ED33FD02160036
:10148100021628EC5D046005E85904700302161E7B
:101491001215E9580460F6EC4860F2EC7004FDFEA8
:1014A100FF22C860DB2481C85009C398600250063E
:1014B1000216259850CAF582E9294B4A7005AB827C
:1014C10002161475F0007C1A7880C3EF9BEE9AED3A
:1014D10099400DC3EF9BFFEE9AFEED99FDE842F0B6
:1014E100DC23ACF0D0E0FFD0E0FED0E0FDAB822009
:1014F100E7101BEB60BAEC2CFCEF33FFEE33FEED93
:1015010033FD021600E803F830E705C0F075F0007E
:10151100EF2FFFEE33FEED33FD40B830E7C280AA76
:1015210074F8CC6480CCC86480C8F58204604FC371
:10153100EB9FF5F0EA9E42F0E99D42F0E89C45F010
:10154100603C501DE5825FFFE582D313CB5BCBF49A
:101551002B5582FB50280ABA002409B900200880C3
:101561001DE5825BFBE582D313CF5FCFF4C3132F5D
:101571005582FF50090EBE00050DBD00010CC3EBE5
:101581009FF5F0EA9E42F0E99D42F0E89C45F0604B
:0915910007CC4820E701B3EC226D
:10159A00ED33EC33600A047003BD8004ECB2E7FC5F
:0115AA00221E
:1015AB0075F020800E75F010800575F0087D007EBB
:1015BB00007F003392D530D5031218F7EC3340106F
:1015CB00EF33FFEE33FEED33FDEC33FCD5F0ED22C4
:0E15DB00E5F0247EA2D513CC92E7CDCEFF2200
:101F9D00E5082445F582E43404F583E00508229034
:101FAD000442300703900445E475F00112198402D0
:101FBD0018692000E97F2ED2008018EF540F24906D
:101FCD00D43440D4FF30040BEF24BFB41A005003B7
:101FDD002461FFE50960021509050CE50C70020589
:101FED000B30070E900442E475F001121984EF02D4
:101FFD0018AF022D407403D2078003E4C207F50821
:10200D0090044212199BE4F509F50BF50CE50960F6
:10201D00077F20121FE080F5750AFFC201C200C2C2
:10202D0002C203C205C206C208121FACFF700D30FA
:10203D0007057F00121FF1AF0CAE0B22B4255FC256
:10204D00D5C204121FACFF24D0B40A00501A75F08B
:10205D000A780930D50508B6FF0106C6A426F62074
:10206D00D5047002D20380D924CFB41A00EF5004E6
:10207D00C2E5D2040222E3D20180C6D20080C0D2D2
:10208D000280BCD2D580BAD20580B47F20121FE069
:10209D002002077401B5090040F1121F9DFF121FA8
:1020AD00E002201AD208D2068095121F9DFB121F46
:1020BD009DFA121F9DF94A4B700679E17A237BFF39
:1020CD0020022EE509602A7E008E8275830012188B
:1020DD008260060EEE650A70F0C2D5EBC0E0EAC074
:1020ED00E0E9C0E0EE122344D0E0F9D0E0FAD0E010
:1020FD00FB121869FF60AAEBC0E0EAC0E0E9C0E09E
:10210D00121FE0D0E02401F9D0E03400FAD0E0FB5A
:10211D00E50A0460DCD50AD98087D20280A2122399
:10212D002660F7E50A70010412166AA90A600DE52A
:10213D000A600914F50A1223CEEF60F3EA30E702C4
:10214D00F404C3995079EAF4250A0430E701E40454
:10215D00F50A800D12232660C1EA050A250A12161A
:10216D006AEA900471F030E701E4250A04D50A0407
:10217D0020050114122344E4C0E01223CE90047113
:10218D00E0601320E70714F0121FC8802204F0D07E
:10219D00E014C0E07F00121FC8E50A6007121FBFE0
:1021AD00150A800B300503121FBFD0E002201AD094
:1021BD00E00480C4122326609EE50A0412166A907C
:1021CD000471EAF0E50A20050260010424041223DB
:0121DD0044BD
:1021DE0074FF04C0E01223CE121FC8E50A200502C8
:1021EE006003121FBFD0E0B50AE87F45121FD290E0
:1021FE000471E07F2B30E7047F2DF404C0E0121F42
:10220E00E0D0E075F00A84C0F0121FC9D0E0121FB2
:10221E00C902201A791080027908C206C208800805
:10222E00D2D5790A8004790AC2D5E50A047002F57E
:10223E000AE4FAFDFEFF121F9DFC7B08200113121B
:10224E001F9DFD7B1030000A121F9DFE121F9DFF69
:10225E007B20EC3382D592D55013C3E43000069F19
:10226E00FFE49EFEE42001039DFDE49CFCE4CBF81C
:10227E00C201EC700CCFCECDCCE824F8F870F38010
:10228E0017C3EF33FFEE33FEED33FDEC33FCEB33D0
:10229E00FB994002FB0FD8E9EB300105F8D0E0C402
:1022AE0048B201C0E00AEC4D4E4F78207B0070C260
:1022BE00EAB50A0040BCC0E0122346D0F0D0E020C0
:1022CE000104C4C0E0C4B201C0F0121FC9D0F0D5E1
:1022DE00F0EB02201A1219A420B75322225820889C
:1022EE004C20844222264F222E44222E49209D43EA
:1022FE0022345521614621C145212B47240150200E
:10230E008C2D20902E20B32B20942320B12023EA55
:10231E002A204C48000020ABE50AB4FF03750A06DC
:10232E00121F9DFC121F9DFD121F9DFE121F9DFF71
:10233E0090046A0216A7790AA2D520031430050963
:10234E00B910020404B9080104A2D52006025001F6
:10235E00042002689202B509005034C0E07F20309C
:10236E0003197F30A20272067205500F12239DC20E
:10237E0002C206C205C2087F30800F300503E9C0D5
:10238E00E0121FE0300503D0E0F9D0E0B509CC3003
:10239E0005177F30B9100C121FE07F583004077FED
:1023AE00788003B90803121FE03002057F2D021F4B
:1023BE00E07F202008F87F2B2006F322920280CFA8
:1023CE007F00B40700500B246AF582E43404F583D1
:1023DE00E0FF22286E756C6C2900D201121F9D3011
:1023EE0001F8C201780930D50108F602204C2D50B3
:1023FE00434958121F9D2403B405004001E4902365
:10240E00FC93121FD1743A121FD1D2037509040224
:02241E00222278
:102B1C0033DA929E35B16011377FE5FE3921848915
:102B2C003AAEC3FF3C1D955B3D6358473E75FDF0C7
:102B3C003F3172183F800000C2D502162802161EC3
:102B4C00BD80FA50F3021625ED33EC330460F17BB3
:102B5C003B7AAA79B8783F12137BED33EC3392D5DC
:102B6C00247B5011A2D570DB500BED448024045013
:102B7C0004A2D580CEEFFBEEFAEDF9ECF812163389
:102B8C00EFF582F404FC1215B512128AC082902B58
:102B9C001C74091217BBED33CC33D0F092D525F051
:0A2BAC00A2D57001C313CC13FD2263
:1015E900E9D2E7C933E833F892D5EDD2E7CD33EC48
:0715F90033FC5002B2D522C1
:10160000EC30E7100FBF000C0EBE00080DBD00044B
:101610000BEB6014A2D5EB13FCED92E7FD2274FFF7
:10162000FCFDFEFF22E480F8A2D574FF13FC7D8050
:03163000E480EF64
:10163300EDD2E7CD33EC3392D524814006E4FFFEAF
:10164300FDFC22FCE4CFCECDCC24E0501174FF800E
:10165300EDC3CC13CCCD13CDCE13CECF13CF0470AB
:07166300F030D5DE0218F79C
:10166A00F920E73624F950037907E4F42402FBE56C
:10167A0082158270021583DBF6E024FB501BE960B9
:10168A0014E4F0E582158270021583E004F0B40ACE
:0D169A0008E4F0D9EE7401F00A22C2D52256
:1016A700ED33EC3392D5FA602AB4FF33EDC2E77B12
:1016B700FF60067A1679CCE4227A1679D520D5040C
:1016C7007A1679D0224E614E002B494E46002D499D
:1016D7004E4600E47A08F0A3DAFC7B00740722C0C8
:1016E70083C082ECC0E0EDC0E0EEC0E0EFC0E0EA0E
:1016F70075F010A4CAABF075F04DA42BFBE435F0E0
:10170700FCEA2410FAEB34C5FBEC34D9FCEDC2E754
:10171700FF75F056A4F42411C5F0F434C58FF0A476
:101727002AE5F03BE43CF020E714121829D0E0FF4B
:10173700D0E0FED0E0FDD0E0FC1214848014F40465
:10174700121829D0E0FFD0E0FED0E0FDD0E0FC1277
:10175700137BD082D083E0FAEDD2E7CD33EC33248C
:1017670082FBE4C3CF33CFCE33CECD33CD33DBF3E0
:101777007B0775F00A846004F0A31B0AE5F0F0A369
:101787008FF0740AA4FFACF08EF0740AA42CFEACA0
:10179700F050010C8DF0740AA42CFDE435F0F0A391
:0517A700DBDE740722E7
:1017AC00C0E0EFFBEEFAEDF9ECF812137BD0E0F5AC
:1017BC00F0EFFBEEFAEDF9ECF812191BA3A3A3A3BF
:1017CC00E8C0E0E9C0E0EAC0E0EBC0E0C0F0121312
:1017DC007B12192BA3A3A3A312128AD0F0D0E0FB87
:0D17EC00D0E0FAD0E0F9D0E0F8D5F0D4223A
:1017F9003F8000004120000042C80000447A0000F8
:10180900461C400047C35000497424004B18968079
:101819004CBEBC205A0E1BCA6753C21C749DC5AE70
:10182900FB60065407601C2323121857EB543860D9
:101839000912184312185212137BECF8EDF9EEFA5B
:10184900EFCB22EB12185280F1543803241C901765
:10185900F9FE93FC0EEE93FD0EEE930ECE93FF224E
:102BC200020003E493A3F8E493A34003F68001F226
:102BD20008DFF48029E493A3F85407240CC8C33314
:102BE200C4540F4420C8834004F456800146F6DFE3
:102BF200E4800B0102040810204080902811E47E3A
:102C0200019360BCA3FF543F30E509541FFEE493D7
:102C1200A360010ECF54C025E060A840B8E493A39E
:102C2200FAE493A3F8E493A3C8C582C8CAC583CAC9
:102C3200F0A3C8C582C8CAC583CADFE9DEE780BE81
:012A7700005E
:10186900BB010689828A83E0225002E722BBFE027D
:09187900E32289828A83E49322B0
:10188200BB010CE58229F582E5833AF583E022501B
:1018920006E92582F8E622BBFE06E92582F8E22265
:0D18A200E58229F582E5833AF583E493227F
:1018AF00BB010689828A83F0225002F722BBFE0118
:0218BF00F32212
:1018C100C2D5EC30E709B2D5E4C39DFDE49CFCEE42
:1018D10030E715B2D5E4C39FFFE49EFE1219D0C3D1
:1018E100E49DFDE49CFC80031219D030D507C3E4CC
:0618F1009FFFE49EFE22B1
:0E18F700C3E49FFFE49EFEE49DFDE49CFC2202
:10190500EB9FF5F0EA9E42F0E99D42F0EC6480C859
:0619150064809845F022F9
:10191B00E493FC740193FD740293FE740393FF2212
:10192B00E493F8740193F9740293FA740393FB2212
:0C193B00ECF0A3EDF0A3EEF0A3EFF0221F
:10194700A8828583F0D083D08212195E12195E12A5
:10195700195E12195EE473E493A3C583C5F0C583CA
:10196700C8C582C8F0A3C583C5F0C583C8C582C8EA
:01197700224D
:0C197800A42582F582E5F03583F583227A
:10198400F8E0FBA3A3E0F925F0F0E58215827002EC
:071994001583E0FA38F02290
:09199B00EBF0A3EAF0A3E9F0224D
:1019A400D083D082F8E4937012740193700DA3A3D2
:1019B40093F8740193F5828883E4737402936860E6
:0619C400EFA3A3A380DFE6
:0619CA008A838982E473A8
:102CB900900472121A257810EC4D4E4F70047CA5C1
:102CC9007DA5C3EC13FCED13FDEE13FEEF13FF50CE
:102CD90010EC64CCFCED644CFDEE644EFEEF64CE6A
:102CE900FFD8DF90047212193BEE547FFE22900444
:0D2CF90072EEF0EFA3F0A374A5F0A3F0229B
:1019D000BC000BBE0029EF8DF084FFADF022E4CCFB
:1019E000F875F008EF2FFFEE33FEEC33FCEE9DECC4
:1019F000984005FCEE9DFE0FD5F0E9E4CEFD22ED0A
:101A0000F8F5F0EE8420D21CFEADF075F008EF2F53
:101A1000FFED33FD4007985006D5F0F222C398FD44
:051A20000FD5F0EA22E1
:0C1A2500E0FCA3E0FDA3E0FEA3E0FF2234
:00000001FF
